:100000000C9446000C9465000C9465000C946500FB
:100010000C9465000C9465000C9465000C946500CC
:100020000C9465000C9465000C9465000C9483029C
:100030000C9465000C9465000C9465000C946500AC
:100040000C9465000C9465000C9465000C9465009C
:100050000C9465000C9465000C9465000C9465008C
:100060000C9465000C9465000C9465000C9465007C
:100070000C9465000C9465000C9465000C9465006C
:100080000C9465000C9465000C94650011241FBE4F
:10009000CFEFD0E4DEBFCDBF11E0A0E0B1E0EEE2F3
:1000A000F7E000E00BBF02C007900D92A230B1074D
:1000B000D9F721E0A2E0B1E001C01D92A332B2075E
:1000C000E1F70E9407010C9495030C94000088301E
:1000D00058F491E001C0990F8A95EAF7892FAAE2B6
:1000E000B0E0EBE2F0E031C0803160F498EF980FBF
:1000F00081E001C0880F9A95EAF7A4E2B0E0E5E25A
:10010000F0E023C0883160F490EF980F81E001C0E7
:10011000880F9A95EAF7A7E2B0E0E8E2F0E015C0B0
:10012000803270F42FE130E0281B310981E001C0FA
:10013000880F2A95EAF7A1E2B0E0E2E2F0E005C01C
:1001400080E0A0E0B0E0E0E0F0E06F3F19F49081E3
:10015000982709C0662319F09081982B04C020814C
:10016000982F9095922390839C91982B9C9308951F
:100170008F3F11F46FEF05C0811102C061E001C033
:1001800060E081E00C946700682F84E10C946700C4
:10019000CF92DF92EF92FF920F931F93CF93DF9353
:1001A000EB018A01882319F10E943903C880D980A4
:1001B000EA80FB806C197D098E099F090E94BD02AF
:1001C000603A76488140910540F488819981AA81FE
:1001D000BB81892B8A2B8B2B89F48FEFF801099532
:1001E0000E943903688379838A839B8307C080E0F8
:1001F000FA010995188219821A821B82DF91CF9128
:100200001F910F91FF90EF90DF90CF900895CF93C3
:10021000DF93CDB7DEB728970FB6F894DEBF0FBED9
:10022000CDBF0E944A021D821E821F82188619823B
:100230001A821B821C828CE20E947802182F44ECE6
:1002400050E0BE016B5F7F4F88720E94C80048EB90
:1002500050E0BE016F5F7F4F812F8C700E94C800FD
:10026000EACF81E090E06F9364E06A95F1F76F91D7
:100270000197C9F708950F931F93CF93DF9317B199
:100280003D982898299AC0E0D0E00E9431012A9A2E
:100290000E94310106B12A980E9431012A9A0E94D7
:1002A00031012A98249605FF10C09E0140E050E0DD
:1002B0008091060190910701A0910801B091090178
:1002C000281739074A075B0700F39E0140E050E01A
:1002D0008091060190910701A0910801B091090158
:1002E000281739074A075B0728F082E390E0A0E06F
:1002F000B0E004C080E395E7A0E0B0E080930601A1
:1003000090930701A0930801B093090117B9DF91F9
:10031000CF911F910F91089528B190E08F70907048
:10032000880F991F880F991F237C282B28B92A9A98
:100330000E9431012A980E9431010895A2E0B0E0A4
:10034000E4EAF1E00C946B03182F4A8369830E945E
:1003500014020E943B01F7B008B1299869814A81D3
:10036000662311F0289A01C0289887B18C6387B959
:10037000413029F0812F82958F700E948C01812F4E
:100380008F700E948C01F7B808B92296E5E00C94B2
:10039000870360E042E00E949E01089560E041E032
:1003A0000E949E0108953D98459A80E395E7A0E05C
:1003B000B0E08093060190930701A0930801B093E9
:1003C0000901209A219A229A8EE190E00E94E0028F
:1003D00083E00E94CE0186E090E00E94E00283E08C
:1003E0000E94CE0182E090E00E94E00283E00E9441
:1003F000CE0182E090E00E94E00282E00E94CE0105
:1004000082E090E00E94E00288E20E94C90188E058
:100410000E94C90181E00E94C90186E00E94C901D1
:100420008CE00E94C901089580910A01882329F473
:1004300081E080930A010E94D301089581E00E9427
:10044000C9018091020190910301009711F1A0E090
:10045000B0E208C0E0910201F0910301E20FF31F46
:10046000B083AF5F2A2F30E08091000190E00197C8
:100470006091010170E0869FA001879F500D969FBB
:10048000500D1124241735072CF3109205011092FA
:10049000040108950E941E02089587B1837D87B9E3
:1004A00088B18C6288B985E090E06F9364E06A95CA
:1004B000F1F76F910197C9F7089580910B01882397
:1004C00029F481E080930B010E944D020895A1E080
:1004D000B0E0EDE6F2E00C946E0389830E945D02C9
:1004E00096B19095898189232196E2E00C948A0344
:1004F0000E94670208956F9364E06A95F1F76F9127
:100500000197C9F708952F928F939F932FB68091EB
:10051000190190911A0101968093190190931A0183
:1005200090E080911B01891F80931B019091210114
:100530009C5F909321018091200180519742C0F0EF
:10054000909321018093200180911C0190911D01C5
:10055000019680931C0190931D0190E080911E01F3
:10056000891F80931E0180911F01891F80931F01A5
:100570002FBE9F918F912F9018950F931F936F5FB0
:100580007F4F8F4F9F4F660F771F881F991F25E062
:1005900030E040E050E00E943C03B901CA011F91E5
:1005A0000F910895CF93DF93EC0105C088EE93E09F
:1005B0000E947B0221972097C9F7DF91CF91089580
:1005C0000E94D2020895E0E7F0E080818E7F808370
:1005D000A0EBB0E08C9183608C93A1EBB0E08C91A8
:1005E000807F8C938C9182608C93B89A808181609B
:1005F00080837894089580912201882329F481E0F2
:10060000809322010E94E30208950E94FB028091E0
:1006100070008E7F809370002091B200809118014D
:1006200090911901A0911A01B0911B01B89904C0D1
:1006300030E040E050E011C08091B20020911801FC
:100640003091190140911A0150911B0120503F4FE8
:100650004F4F5F4F90E0A0E0B0E0282B392B4A2BA2
:100660005B2B80917000816080937000B901CA019A
:1006700008950E9405030895A1E21A2EAA1BBB1B30
:10068000FD010DC0AA1FBB1FEE1FFF1FA217B3075E
:10069000E407F50720F0A21BB30BE40BF50B661F74
:1006A000771F881F991F1A9469F760957095809538
:1006B00090959B01AC01BD01CF0108952F923F920F
:1006C0004F925F926F927F928F929F92AF92BF9262
:1006D000CF92DF92EF92FF920F931F93CF93DF930E
:1006E000CDB7DEB7CA1BDB0B0FB6F894DEBF0FBE6B
:1006F000CDBF09942A88398848885F846E847D84B8
:100700008C849B84AA84B984C884DF80EE80FD80B9
:100710000C811B81AA81B981CE0FD11D0FB6F8942F
:0E072000DEBF0FBECDBFED010895F894FFCFF0
:02072E000210B7
:00000001FF
