:100000000C9446000C9465000C9465000C946500FB
:100010000C9465000C9465000C9465000C946500CC
:100020000C9465000C9465000C9465000C943A01E6
:100030000C9465000C9465000C9465000C946500AC
:100040000C9465000C9465000C9465000C9465009C
:100050000C9465000C9465000C9465000C9465008C
:100060000C9465000C9465000C9465000C9465007C
:100070000C9465000C9465000C9465000C9465006C
:100080000C9465000C9465000C94650011241FBE4F
:10009000CFEFD0E4DEBFCDBF11E0A0E0B1E0EAE7F2
:1000A000F4E000E00BBF02C007900D92A030B10752
:1000B000D9F721E0A0E0B1E001C01D92A831B2075C
:1000C000E1F70E94B8000C943B020C9400008830C9
:1000D00058F491E001C0990F8A95EAF7892FAAE2B6
:1000E000B0E0EBE2F0E031C0803160F498EF980FBF
:1000F00081E001C0880F9A95EAF7A4E2B0E0E5E25A
:10010000F0E023C0883160F490EF980F81E001C0E7
:10011000880F9A95EAF7A7E2B0E0E8E2F0E015C0B0
:10012000803270F42FE130E0281B310981E001C0FA
:10013000880F2A95EAF7A1E2B0E0E2E2F0E005C01C
:1001400080E0A0E0B0E0E0E0F0E06F3F19F49081E3
:10015000982709C0662319F09081982B04C020814C
:10016000982F9095922390839C91982B9C9308951F
:10017000C12CD12C7601812C912C54018CE20E944F
:100180003701C82FCC708872D9F00E94DF0168193E
:1001900079098A099B090E9474016039704D834076
:1001A000910528F481149104A104B10481F46FEF46
:1001B00084E10E9467000E94DF014B015C0107C0DF
:1001C00060E084E10E946700812C912C5401CC23D3
:1001D000D9F00E94DF016C197D098E099F090E94E8
:1001E00074016039704D8340910528F4C114D10425
:1001F000E104F10419F66FEF81E00E9467000E94AC
:10020000DF016B017C01BACF61E081E00E946700F1
:10021000C12CD12C7601B2CF87B1837D87B988B14B
:100220008C6288B985E090E06F9364E06A95F1F79D
:100230006F910197C9F7089580910001882329F4EF
:1002400081E0809300010E940C010895A1E0B0E0DC
:10025000ECE2F1E00C94140289830E941C0196B137
:100260009095898189232196E2E00C9430020E94C6
:10027000260108952F928F939F932FB680910E01A0
:1002800090910F01019680930E0190930F0190E0E1
:1002900080911001891F80931001909116019C5F3D
:1002A000909316018091150180519742C0F0909370
:1002B0001601809315018091110190911201019610
:1002C000809311019093120190E080911301891F96
:1002D0008093130180911401891F809314012FBE14
:1002E0009F918F912F9018950F931F936F5F7F4F62
:1002F0008F4F9F4F660F771F881F991F25E030E0B3
:1003000040E050E00E94E201B901CA011F910F9143
:100310000895E0E7F0E080818E7F8083A0EBB0E07D
:100320008C9183608C93A1EBB0E08C91807F8C9357
:100330008C9182608C93B89A80818160808378945C
:10034000089580911701882329F481E08093170193
:100350000E94890108950E94A101809170008E7F02
:10036000809370002091B20080910D0190910E0158
:10037000A0910F01B0911001B89904C030E040E0A5
:1003800050E011C08091B20020910D0130910E011A
:1003900040910F015091100120503F4F4F4F5F4F40
:1003A00090E0A0E0B0E0282B392B4A2B5B2B80910A
:1003B0007000816080937000B901CA0108950E94A5
:1003C000AB010895A1E21A2EAA1BBB1BFD010DC0B3
:1003D000AA1FBB1FEE1FFF1FA217B307E407F507F5
:1003E00020F0A21BB30BE40BF50B661F771F881FD1
:1003F000991F1A9469F760957095809590959B0167
:10040000AC01BD01CF0108952F923F924F925F92B0
:100410006F927F928F929F92AF92BF92CF92DF9214
:10042000EF92FF920F931F93CF93DF93CDB7DEB779
:10043000CA1BDB0B0FB6F894DEBF0FBECDBF09940D
:100440002A88398848885F846E847D848C849B8464
:10045000AA84B984C884DF80EE80FD800C811B8172
:10046000AA81B981CE0FD11D0FB6F894DEBF0FBEA1
:0A047000CDBFED010895F894FFCF11
:00000001FF
