S013000041737369676E6D656E74312E73726563C7
S11300000C9446000C9465000C9465000C946500F7
S11300100C9465000C9465000C9465000C946500C8
S11300200C9465000C9465000C9465000C94830298
S11300300C9465000C9465000C9465000C946500A8
S11300400C9465000C9465000C9465000C94650098
S11300500C9465000C9465000C9465000C94650088
S11300600C9465000C9465000C9465000C94650078
S11300700C9465000C9465000C9465000C94650068
S11300800C9465000C9465000C94650011241FBE4B
S1130090CFEFD0E4DEBFCDBF11E0A0E0B1E0EEE0F1
S11300A0F6E000E00BBF02C007900D92AA32B10740
S11300B0D9F721E0AAE2B1E001C01D92AB34B20746
S11300C0E1F70E94C2000C9405030C9400008830F0
S11300D058F491E001C0990F8A95EAF7892FAAE2B2
S11300E0B0E0EBE2F0E031C0803160F498EF980FBB
S11300F081E001C0880F9A95EAF7A4E2B0E0E5E256
S1130100F0E023C0883160F490EF980F81E001C0E3
S1130110880F9A95EAF7A7E2B0E0E8E2F0E015C0AC
S1130120803270F42FE130E0281B310981E001C0F6
S1130130880F2A95EAF7A1E2B0E0E2E2F0E005C018
S113014080E0A0E0B0E0E0E0F0E06F3F19F49081DF
S1130150982709C0662319F09081982B04C0208148
S1130160982F9095922390839C91982B9C9308951B
S113017060E084E10E94670061E081E00E94670022
S11301800C940A020E94B8008CE20E946302C82FF9
S1130190803239F461E084E10E94670082E091E0FA
S11301A015C0883059F461E084E10E94670060E082
S11301B081E00E9467008DE091E008C0843041F442
S11301C060E081E00E9467008BE191E00E942102DF
S11301D08C2F0E947802D6CF81E090E06F9364E088
S11301E06A95F1F76F910197C9F708950F931F93DB
S11301F0CF93DF9317B13D982898299AC0E0D0E0B7
S11302000E94EC002A9A0E94EC0006B12A980E94EF
S1130210EC002A9A0E94EC002A98249605FF10C04C
S11302209E0140E050E080912E0190912F01A09119
S11302303001B0913101281739074A075B0700F3F1
S11302409E0140E050E080912E0190912F01A091F9
S11302503001B0913101281739074A075B0728F0AC
S113026082E390E0A0E0B0E004C080E395E7A0E082
S1130270B0E080932E0190932F01A0933001B093AE
S1130280310117B9DF91CF911F910F91089528B1D2
S113029090E08F709070880F991F880F991F237CAE
S11302A0282B28B92A9A0E94EC002A980E94EC0074
S11302B00895A2E0B0E0EFE5F1E00C94DB02182F22
S11302C04A8369830E94D4010E94F600F7B008B102
S11302D0299869814A81662311F0289A01C02898D7
S11302E087B18C6387B9413029F0812F82958F7053
S11302F00E944701812F8F700E944701F7B808B907
S11303002296E5E00C94F70260E042E00E94590175
S1130310089561E042E00E945901089560E041E0DF
S11303200E94590108953D98459A80E395E7A0E01D
S1130330B0E080932E0190932F01A0933001B093ED
S11303403101209A219A229A8EE190E00E94CB02F8
S113035083E00E948E0186E090E00E94CB0283E05D
S11303600E948E0182E090E00E94CB0283E00E9412
S11303708E0182E090E00E94CB0282E00E948E0116
S113038082E090E00E94CB0288E20E94840188E02F
S11303900E94840181E00E94840186E00E9484011D
S11303A08CE00E948401089580913201882329F40D
S11303B081E0809332010E949301089581E00E94BC
S11303C0840180912A0190912B01009711F1A0E002
S11303D0B0E208C0E0912A01F0912B01E20FF31F73
S11303E0B083AF5F2A2F30E08091000190E0019745
S11303F06091010170E0869FA001879F500D969F38
S1130400500D1124241735072CF310922D0110924E
S11304102C0108950E94DE010895EF92FF92CF937C
S1130420DF93E82EE7017E01F92EE70102C00E9466
S1130430890189918823D9F7DF91CF91FF90EF90BB
S113044008950E940D02089587B1837D87B988B10C
S11304508C6288B985E090E06F9364E06A95F1F767
S11304606F910197C9F7089580913301882329F486
S113047081E0809333010E94240208951F93CF9357
S1130480DF93182F0E943402C12FD0E026B130E050
S1130490209530952C233D2321153105B9F38AE0AD
S11304A090E00E94CB0226B130E0209530952C23B9
S11304B03D232115310551F386B180958123DF91C8
S11304C0CF911F9108950E943E0208951F93182F03
S11304D00E94340286B18123E9F38AE090E00E940D
S11304E0CB0286B18123B1F386B181231F91089594
S11304F00E94660208956F9364E06A95F1F76F9124
S11305000197C9F708952F928F939F932FB68091E7
S113051041019091420101968093410190934201DF
S113052090E080914301891F809343019091490198
S11305309C5F909349018091480180519742C0F09B
S11305409093490180934801809144019091450121
S11305500196809344019093450190E08091460177
S1130560891F8093460180914701891F8093470129
S11305702FBE9F918F912F901895CF93DF93EC010D
S113058005C088EE93E00E947B0221972097C9F76B
S1130590DF91CF9108950E94BD0208952F923F925A
S11305A04F925F926F927F928F929F92AF92BF927F
S11305B0CF92DF92EF92FF920F931F93CF93DF932B
S11305C0CDB7DEB7CA1BDB0B0FB6F894DEBF0FBE88
S11305D0CDBF09942A88398848885F846E847D84D5
S11305E08C849B84AA84B984C884DF80EE80FD80D7
S11305F00C811B81AA81B981CE0FD11D0FB6F8944D
S1110600DEBF0FBECDBFED010895F894FFCF0D
S113060E0210546F7020427574746F6E004D6964DD
S113061E646C6520427574746F6E00426F74746FEF
S10D062E6D20427574746F6E0000B5
S9030000FC
